:0B08FD00010C00020A000002080000CD
:03000B000208EAFE
:1008EA00C0E0758CDC758A00050BE50B7002050A01
:0308FA00D0E03219
:10088C00E50C1460141460382402703C20B23985D5
:10089C000A08850B09750C0122C3E50B9509FFE5C8
:1008AC000A9508FEC3EF9401EE9400401B850A08DC
:1008BC00850B0920B206750C02C2A022E4F50C22AD
:0808CC0030B205E4F50CD2A0E6
:0108D4002201
:1008D5005389F0438901758CDCE4F58AD2A9D2AF3E
:0508E500D28CD2A82214
:080909001208D512088C80FBD6
:03000000020800F3
:0C080000787FE4F6D8FD75810C020847F3
:10080C00020909E493A3F8E493A34003F68001F2F0
:10081C0008DFF48029E493A3F85407240CC8C333ED
:10082C00C4540F4420C8834004F456800146F6DFBC
:10083C00E4800B01020408102040809008FDE47E47
:10084C00019360BCA3FF543F30E509541FFEE493B1
:10085C00A360010ECF54C025E060A840B8E493A378
:10086C00FAE493A3F8E493A3C8C582C8CAC583CAA3
:10087C00F0A3C8C582C8CAC583CADFE9DEE780BE5B
:0109080000EE
:00000001FF
