:0F092B00010E00020C000002080000020A00008A
:03000B00020918CF
:10091800C0E0758CDC758A00050DE50D7002050CCC
:03092800D0E032EA
:10088C00E50E14601714603B146045240370672058
:10089C00B264850C08850D09750E0122C3E50D9512
:1008AC0009FFE50C9508FEC3EF9401EE9400404659
:1008BC00850C08850D0920B206750E02C2A022E433
:1008CC00F50E2230B230850C0A850D0B750E032205
:1008DC00C3E50D950BFFE50C950AFEC3EF9401EEF5
:1008EC0094004012850C0A850D0B30B206E4F50E0F
:0608FC00D2A022750E02DD
:0109020022D2
:100903005389F0438901758CDCE4F58AD2A9D2AF0F
:05091300D28CD2A822E5
:08093B0012090312088C80FB75
:03000000020800F3
:0C080000787FE4F6D8FD75810E020847F1
:10080C0002093BE493A3F8E493A34003F68001F2BE
:10081C0008DFF48029E493A3F85407240CC8C333ED
:10082C00C4540F4420C8834004F456800146F6DFBC
:10083C00E4800B010204081020408090092BE47E18
:10084C00019360BCA3FF543F30E509541FFEE493B1
:10085C00A360010ECF54C025E060A840B8E493A378
:10086C00FAE493A3F8E493A3C8C582C8CAC583CAA3
:10087C00F0A3C8C582C8CAC583CADFE9DEE780BE5B
:01093A0000BC
:00000001FF
