:1008FE00202B08010105050606FB04040303020272
:10090E00FF050504040303FE050504040303FE01AD
:10091E000105050606FB040403030202FF00093568
:10092E00030303020105050601083E010203040547
:10093E000607010746F8F9FAFAFBFBFC074D8C5B3C
:0D094E00156704900C0254000002330000F5
:03001B000209E9EE
:0909E900B2A585568D85578B32AD
:03000B0002095C8B
:10095C00C0E0C0D075D000C006758CFC758A180537
:10096C0055E55570020554AE54C39534EE9533409D
:10097C000AC28EC28C755400755500D006D0D0D0EA
:02098C00E03257
:1009BB00C2AF74452FF8E6F556744C2FF8E6F55791
:1009CB00E4F554F5558C338D34D2AFD28ED28C20C6
:0309DB008CFD226E
:0B09DE00EF1FAC0670011E4C70F622EB
:10088C00E4F558F559F55A755B00755C08755D2BE8
:10089C00758911D2AFD2A9D2ABE4F558F559C3E59D
:1008AC0059955DE55894005040AB5AAA5BA95C85FC
:1008BC00598285588312098EFFD364809480400638
:1008CC007DF47C018016AB5AAA5BA95C85598285A4
:1008DC00588312098EF404FF7DE87C031209BB05D2
:1008EC0059E55970B9055880B57F407E4B1209DE29
:0208FC0080A7D3
:03000000020800F3
:0C080000787FE4F6D8FD75815D020847A2
:10098E00BB010CE58229F582E5833AF583E022501E
:10099E0006E92582F8E622BBFE06E92582F8E22268
:0D09AE00E58229F582E5833AF583E4932282
:10080C0002088CE493A3F8E493A34003F68001F26E
:10081C0008DFF48029E493A3F85407240CC8C333ED
:10082C00C4540F4420C8834004F456800146F6DFBC
:10083C00E4800B01020408102040809008FEE47E46
:10084C00019360BCA3FF543F30E509541FFEE493B1
:10085C00A360010ECF54C025E060A840B8E493A378
:10086C00FAE493A3F8E493A3C8C582C8CAC583CAA3
:10087C00F0A3C8C582C8CAC583CADFE9DEE780BE5B
:01095B00009B
:00000001FF
