:1008B40010083F065B4F666D7D077F6F777C395E5E
:0208C400797148
:0B08C700EF1FAC0670011E4C70F62203
:10088C007580FF74FFFFFE1208C7E4FBFA74082B97
:10089C00F8E6F58074FFFFFE1208C70BBB00010AD7
:0808AC00EB640A4A70E780D8F2
:03000000020800F3
:0C080000787FE4F6D8FD758117020847E8
:10080C0002088CE493A3F8E493A34003F68001F26E
:10081C0008DFF48029E493A3F85407240CC8C333ED
:10082C00C4540F4420C8834004F456800146F6DFBC
:10083C00E4800B01020408102040809008B4E47E90
:10084C00019360BCA3FF543F30E509541FFEE493B1
:10085C00A360010ECF54C025E060A840B8E493A378
:10086C00FAE493A3F8E493A3C8C582C8CAC583CAA3
:10087C00F0A3C8C582C8CAC583CADFE9DEE780BE5B
:0108C6000031
:00000001FF
