:1009700010083F065B4F666D7D077F6F777C395EA1
:0209800079718B
:040983007FE87E0388
:0B098700EF1FAC0670011E4C70F62242
:10080000E4F5197590F7E59064F76028120983AF55
:1008100090EF2449601124E0601224F060132470EA
:100820007012751901800D751905800875190980F8
:100830000375190D7590FBE59064FB602812098320
:10084000AF90EF2445601124E0601224F06013247F
:10085000707012751902800D751906800875190AD5
:10086000800375190E7590FDE59064FD60281209EE
:1008700083AF90EF2443601124E0601224F06013F2
:1008800024707012751903800D7519078008751989
:100890000B800375190F7590FEE59064FE602812B9
:1008A0000983AF90EF2442601124E0601224F060CD
:1008B0001324707012751904800D7519088008755D
:0908C000190C8003751910AF1921
:0108C900220C
:10095600E4F518C2A4C2A3C2A21208008F18E518B3
:0809660060EE2407F8E6F580BD
:02096E0080E621
:030000000208CA29
:0C08CA00787FE4F6D8FD75811902091151
:1008D600020956E493A3F8E493A34003F68001F2D9
:1008E60008DFF48029E493A3F85407240CC8C33323
:1008F600C4540F4420C8834004F456800146F6DFF2
:10090600E4800B0102040810204080900970E47E08
:10091600019360BCA3FF543F30E509541FFEE493E6
:10092600A360010ECF54C025E060A840B8E493A3AD
:10093600FAE493A3F8E493A3C8C582C8CAC583CAD8
:10094600F0A3C8C582C8CAC583CADFE9DEE780BE90
:010982000074
:00000001FF
