:10087300EDC394085010AE057401A806088002C3A6
:0708830033D8FCF4520722F8
:04080000AC03AB0595
:10080400EBC39408504BECC394085045EBB504017A
:1008140022EFA803088002C313D8FC5401F9EFA8FF
:1008240004088002C313D8FC5401FAAD0312087300
:10083400AD04120873AE04E9A806088002C333D8D5
:10084400FC4207AE03EAA806088002C333D8FC4280
:01085400079C
:010855002280
:10085600E4F58075A0FFE5B0540FFF640F60F74321
:0D08660007F07B01E4FD1208008FA080E97F
:0300000002088A69
:0C088A00787FE4F6D8FD7581070208565F
:00000001FF
