:1009540002080000020C0000C180C101020A00006C
:03000B00020800E8
:10080000C0E0C0F0C083C082C0D075D000C000C0BE
:1008100001C002C003C004C005C006C007300020EC
:10082000B2A50509E50970020508FFAE08E4FCFD64
:100830007B607AEAF9F8C31209295004C2A5C20004
:10084000050DE50D7002050CC39488E50C9413406A
:1008500008B2A0750C00750D0030012020B21505FE
:100860000BE50B7002050AC39414E50A9400400CD2
:10087000B2A18000750A00750B00C201758CFF756E
:100880008A9CD007D006D005D004D003D002D00176
:0D089000D000D0D0D082D083D0F0D0E032A4
:030003000209658A
:03096500D201328A
:10093F00D2AFD2A9D2A8D288758901758CFF758ADA
:05094F009CD28C80FE2B
:0300000002089D56
:0C089D00787FE4F6D8FD7581200208E4A5
:10092900EB9FF5F0EA9E42F0E99D42F0EC6480C845
:0609390064809845F022E5
:1008A90002093FE493A3F8E493A34003F68001F21D
:1008B90008DFF48029E493A3F85407240CC8C33350
:1008C900C4540F4420C8834004F456800146F6DF1F
:1008D900E4800B0102040810204080900954E47E52
:1008E900019360BCA3FF543F30E509541FFEE49314
:1008F900A360010ECF54C025E060A840B8E493A3DB
:10090900FAE493A3F8E493A3C8C582C8CAC583CA05
:10091900F0A3C8C582C8CAC583CADFE9DEE780BEBD
:010964000092
:00000001FF
