:1008EF0001180010080000000000000000000000C8
:0508FF000000000000F4
:03000B00020927C0
:09092700758C4C758A000518322C
:10088C00EF25E02408F8E6FA08E6FBAE18EEC39B69
:10089C00FBE49AFAC3EB9DEA9C401C7401A8070880
:1008AC008002C333D8FC62A0AE18EEFDEF25E02425
:0708BC0008F8760008A6050C
:0108C3002212
:10091700D2AFD2A9438901758C4CE4F58AD28C22D7
:0308C400120917FF
:1008C700E4F519F519E5192401FFE433FE7C007DF1
:1008D7000A120905AC06AD07AF1912088C0519E510
:0808E70019C3940840DF80D81A
:03000000020800F3
:0C080000787FE4F6D8FD758119020847E6
:10090500EF8DF0A4A8F0CF8CF0A428CE8DF0A42E06
:02091500FE22C0
:10080C000208C4E493A3F8E493A34003F68001F236
:10081C0008DFF48029E493A3F85407240CC8C333ED
:10082C00C4540F4420C8834004F456800146F6DFBC
:10083C00E4800B01020408102040809008EFE47E55
:10084C00019360BCA3FF543F30E509541FFEE493B1
:10085C00A360010ECF54C025E060A840B8E493A378
:10086C00FAE493A3F8E493A3C8C582C8CAC583CAA3
:10087C00F0A3C8C582C8CAC583CADFE9DEE780BE5B
:0109040000F2
:00000001FF
