:0E092A00014100014300014200014400C100F0
:1009130053890F4389207598504387808F8D8F8B20
:07092300D2ACD2AFD28E224C
:0300230002088C44
:10088C00C0E0C0D075D000C000C007309811C2982D
:10089C00AF4174212FF8A699E54104540FF541306E
:1008AC00991CC299E54465426012AF4474312FF82B
:1008BC00E6F599E54404540FF5448002C200D007D4
:0708CC00D000D0D0D0E032D3
:1008D3007FFD120913E543654160FAAF4374212F8D
:1008E300F8E6FFAE4274312EF8A607E54204540F32
:1008F300F542E54304540FF5432000D9D200AF4439
:1009030074312FF8E6F599E54404540FF54480C596
:03000000020800F3
:0C080000787FE4F6D8FD758144020847BB
:10080C000208D3E493A3F8E493A34003F68001F227
:10081C0008DFF48029E493A3F85407240CC8C333ED
:10082C00C4540F4420C8834004F456800146F6DFBC
:10083C00E4800B010204081020408090092AE47E19
:10084C00019360BCA3FF543F30E509541FFEE493B1
:10085C00A360010ECF54C025E060A840B8E493A378
:10086C00FAE493A3F8E493A3C8C582C8CAC583CAA3
:10087C00F0A3C8C582C8CAC583CADFE9DEE780BE5B
:0109380000BE
:00000001FF
